{
  "contractName": "Purchase",
  "abi": [
    {
      "constant": true,
      "inputs": [],
      "name": "seller",
      "outputs": [
        {
          "name": "",
          "type": "address"
        }
      ],
      "payable": false,
      "stateMutability": "view",
      "type": "function",
      "signature": "0x08551a53"
    },
    {
      "constant": true,
      "inputs": [],
      "name": "value",
      "outputs": [
        {
          "name": "",
          "type": "uint256"
        }
      ],
      "payable": false,
      "stateMutability": "view",
      "type": "function",
      "signature": "0x3fa4f245"
    },
    {
      "constant": true,
      "inputs": [],
      "name": "buyer",
      "outputs": [
        {
          "name": "",
          "type": "address"
        }
      ],
      "payable": false,
      "stateMutability": "view",
      "type": "function",
      "signature": "0x7150d8ae"
    },
    {
      "constant": true,
      "inputs": [],
      "name": "state",
      "outputs": [
        {
          "name": "",
          "type": "uint8"
        }
      ],
      "payable": false,
      "stateMutability": "view",
      "type": "function",
      "signature": "0xc19d93fb"
    },
    {
      "inputs": [],
      "payable": true,
      "stateMutability": "payable",
      "type": "constructor",
      "signature": "constructor"
    },
    {
      "anonymous": false,
      "inputs": [],
      "name": "Aborted",
      "type": "event",
      "signature": "0x72c874aeff0b183a56e2b79c71b46e1aed4dee5e09862134b8821ba2fddbf8bf"
    },
    {
      "anonymous": false,
      "inputs": [],
      "name": "PurchaseConfirmed",
      "type": "event",
      "signature": "0xd5d55c8a68912e9a110618df8d5e2e83b8d83211c57a8ddd1203df92885dc881"
    },
    {
      "anonymous": false,
      "inputs": [],
      "name": "ItemReceived",
      "type": "event",
      "signature": "0xe89152acd703c9d8c7d28829d443260b411454d45394e7995815140c8cbcbcf7"
    },
    {
      "constant": false,
      "inputs": [],
      "name": "abort",
      "outputs": [],
      "payable": false,
      "stateMutability": "nonpayable",
      "type": "function",
      "signature": "0x35a063b4"
    },
    {
      "constant": false,
      "inputs": [],
      "name": "confirmPurchase",
      "outputs": [],
      "payable": true,
      "stateMutability": "payable",
      "type": "function",
      "signature": "0xd6960697"
    },
    {
      "constant": false,
      "inputs": [],
      "name": "confirmReceived",
      "outputs": [],
      "payable": false,
      "stateMutability": "nonpayable",
      "type": "function",
      "signature": "0x73fac6f0"
    }
  ],
  "bytecode": "0x608060405233600160006101000a81548173ffffffffffffffffffffffffffffffffffffffff021916908373ffffffffffffffffffffffffffffffffffffffff16021790555060023481151561005157fe5b04600081905550346000546002021415156100d4576040517f08c379a00000000000000000000000000000000000000000000000000000000081526004018080602001828103825260158152602001807f56616c75652068617320746f206265206576656e2e000000000000000000000081525060200191505060405180910390fd5b61087f806100e36000396000f3fe608060405260043610610083576000357c0100000000000000000000000000000000000000000000000000000000900463ffffffff16806308551a531461008857806335a063b4146100df5780633fa4f245146100f65780637150d8ae1461012157806373fac6f014610178578063c19d93fb1461018f578063d6960697146101c8575b600080fd5b34801561009457600080fd5b5061009d6101d2565b604051808273ffffffffffffffffffffffffffffffffffffffff1673ffffffffffffffffffffffffffffffffffffffff16815260200191505060405180910390f35b3480156100eb57600080fd5b506100f46101f8565b005b34801561010257600080fd5b5061010b61042d565b6040518082815260200191505060405180910390f35b34801561012d57600080fd5b50610136610433565b604051808273ffffffffffffffffffffffffffffffffffffffff1673ffffffffffffffffffffffffffffffffffffffff16815260200191505060405180910390f35b34801561018457600080fd5b5061018d610459565b005b34801561019b57600080fd5b506101a46106f9565b604051808260028111156101b457fe5b60ff16815260200191505060405180910390f35b6101d061070c565b005b600160009054906101000a900473ffffffffffffffffffffffffffffffffffffffff1681565b600160009054906101000a900473ffffffffffffffffffffffffffffffffffffffff1673ffffffffffffffffffffffffffffffffffffffff163373ffffffffffffffffffffffffffffffffffffffff161415156102bd576040517f08c379a000000000000000000000000000000000000000000000000000000000815260040180806020018281038252601a8152602001807f4f6e6c792073656c6c65722063616e2063616c6c20746869732e00000000000081525060200191505060405180910390fd5b60008060028111156102cb57fe5b600260149054906101000a900460ff1660028111156102e657fe5b14151561035b576040517f08c379a000000000000000000000000000000000000000000000000000000000815260040180806020018281038252600e8152602001807f496e76616c69642073746174652e00000000000000000000000000000000000081525060200191505060405180910390fd5b7f72c874aeff0b183a56e2b79c71b46e1aed4dee5e09862134b8821ba2fddbf8bf60405160405180910390a160028060146101000a81548160ff021916908360028111156103a557fe5b0217905550600160009054906101000a900473ffffffffffffffffffffffffffffffffffffffff1673ffffffffffffffffffffffffffffffffffffffff166108fc3073ffffffffffffffffffffffffffffffffffffffff16319081150290604051600060405180830381858888f19350505050158015610429573d6000803e3d6000fd5b5050565b60005481565b600260009054906101000a900473ffffffffffffffffffffffffffffffffffffffff1681565b600260009054906101000a900473ffffffffffffffffffffffffffffffffffffffff1673ffffffffffffffffffffffffffffffffffffffff163373ffffffffffffffffffffffffffffffffffffffff1614151561051e576040517f08c379a00000000000000000000000000000000000000000000000000000000081526004018080602001828103825260198152602001807f4f6e6c792062757965722063616e2063616c6c20746869732e0000000000000081525060200191505060405180910390fd5b600180600281111561052c57fe5b600260149054906101000a900460ff16600281111561054757fe5b1415156105bc576040517f08c379a000000000000000000000000000000000000000000000000000000000815260040180806020018281038252600e8152602001807f496e76616c69642073746174652e00000000000000000000000000000000000081525060200191505060405180910390fd5b7fe89152acd703c9d8c7d28829d443260b411454d45394e7995815140c8cbcbcf760405160405180910390a160028060146101000a81548160ff0219169083600281111561060657fe5b0217905550600260009054906101000a900473ffffffffffffffffffffffffffffffffffffffff1673ffffffffffffffffffffffffffffffffffffffff166108fc6000549081150290604051600060405180830381858888f19350505050158015610675573d6000803e3d6000fd5b50600160009054906101000a900473ffffffffffffffffffffffffffffffffffffffff1673ffffffffffffffffffffffffffffffffffffffff166108fc3073ffffffffffffffffffffffffffffffffffffffff16319081150290604051600060405180830381858888f193505050501580156106f5573d6000803e3d6000fd5b5050565b600260149054906101000a900460ff1681565b600080600281111561071a57fe5b600260149054906101000a900460ff16600281111561073557fe5b1415156107aa576040517f08c379a000000000000000000000000000000000000000000000000000000000815260040180806020018281038252600e8152602001807f496e76616c69642073746174652e00000000000000000000000000000000000081525060200191505060405180910390fd5b60005460020234148015156107be57600080fd5b7fd5d55c8a68912e9a110618df8d5e2e83b8d83211c57a8ddd1203df92885dc88160405160405180910390a133600260006101000a81548173ffffffffffffffffffffffffffffffffffffffff021916908373ffffffffffffffffffffffffffffffffffffffff1602179055506001600260146101000a81548160ff0219169083600281111561084a57fe5b0217905550505056fea165627a7a72305820792da4f5d5d64a580875dd93fd45c204070313e029e067c95d0f1684c8f19eee0029",
  "source": "pragma solidity ^0.5.0;\n\ncontract Purchase {\n    uint public value;\n    address payable public seller;\n    address payable public buyer;\n    enum State { Created, Locked, Inactive }\n    State public state;\n\nconstructor() public payable {\n    seller = msg.sender;\n    value = msg.value / 2;\n    require((2 * value) == msg.value, \"Value has to be even.\");\n}\n    modifier condition(bool _condition) {\n    require(_condition);\n    _;\n}\n    modifier onlyBuyer() {\n    require(msg.sender == buyer,\"Only buyer can call this.\");\n    _;\n}\n    modifier onlySeller() {\nrequire(msg.sender == seller,\"Only seller can call this.\");\n    _;\n}\n    modifier inState(State _state) {\nrequire(state == _state,\"Invalid state.\");\n    _;\n}\n    event Aborted();\n    event PurchaseConfirmed();\n    event ItemReceived();\n\n    function abort()\n    public onlySeller inState(State.Created)\n{\n    emit Aborted();\n    state = State.Inactive;\n    seller.transfer(address(this).balance);\n}\n\n    function confirmPurchase()\n    public inState(State.Created)\n    condition(msg.value == (2 * value)) payable\n{\n    emit PurchaseConfirmed();\n    buyer = msg.sender;\n    state = State.Locked;\n}\n\n    function confirmReceived()\npublic onlyBuyer inState(State.Locked)\n{\n    emit ItemReceived();\n\n    state = State.Inactive;\n\n    buyer.transfer(value);\n    seller.transfer(address(this).balance);\n}\n}",
  "sourcePath": "C:/Users/Lydia/shop/contracts/buy_sell.sol",
  "compiler": {
    "name": "solc",
    "version": "0.5.0+commit.1d4f565a.Emscripten.clang"
  },
  "schemaVersion": "3.0.1",
  "updatedAt": "2019-01-30T20:21:47.789Z",
  "devdoc": {
    "methods": {}
  },
  "userdoc": {
    "methods": {}
  }
}